{
  "contractName": "Metadata",
  "abi": [
    {
      "anonymous": false,
      "inputs": [
        {
          "indexed": true,
          "name": "dataToken",
          "type": "address"
        },
        {
          "indexed": true,
          "name": "createdBy",
          "type": "address"
        },
        {
          "indexed": false,
          "name": "flags",
          "type": "bytes"
        },
        {
          "indexed": false,
          "name": "data",
          "type": "bytes"
        }
      ],
      "name": "MetadataCreated",
      "type": "event"
    },
    {
      "anonymous": false,
      "inputs": [
        {
          "indexed": true,
          "name": "dataToken",
          "type": "address"
        },
        {
          "indexed": true,
          "name": "updatedBy",
          "type": "address"
        },
        {
          "indexed": false,
          "name": "flags",
          "type": "bytes"
        },
        {
          "indexed": false,
          "name": "data",
          "type": "bytes"
        }
      ],
      "name": "MetadataUpdated",
      "type": "event"
    },
    {
      "constant": false,
      "inputs": [
        {
          "name": "dataToken",
          "type": "address"
        },
        {
          "name": "flags",
          "type": "bytes"
        },
        {
          "name": "data",
          "type": "bytes"
        }
      ],
      "name": "create",
      "outputs": [],
      "payable": false,
      "stateMutability": "nonpayable",
      "type": "function"
    },
    {
      "constant": false,
      "inputs": [
        {
          "name": "dataToken",
          "type": "address"
        },
        {
          "name": "flags",
          "type": "bytes"
        },
        {
          "name": "data",
          "type": "bytes"
        }
      ],
      "name": "update",
      "outputs": [],
      "payable": false,
      "stateMutability": "nonpayable",
      "type": "function"
    }
  ],
  "bytecode": "0x608060405234801561001057600080fd5b50610531806100206000396000f3fe608060405234801561001057600080fd5b50600436106100395760e060020a600035046382743814811461003e578063f89b1f3614610112575b600080fd5b6101106004803603606081101561005457600080fd5b600160a060020a03823516919081019060408101602082013564010000000081111561007f57600080fd5b82018360208201111561009157600080fd5b803590602001918460018302840111640100000000831117156100b357600080fd5b9193909290916020810190356401000000008111156100d157600080fd5b8201836020820111156100e357600080fd5b8035906020019184600183028401116401000000008311171561010557600080fd5b5090925090506101e4565b005b6101106004803603606081101561012857600080fd5b600160a060020a03823516919081019060408101602082013564010000000081111561015357600080fd5b82018360208201111561016557600080fd5b8035906020019184600183028401116401000000008311171561018757600080fd5b9193909290916020810190356401000000008111156101a557600080fd5b8201836020820111156101b757600080fd5b803590602001918460018302840111640100000000831117156101d957600080fd5b509092509050610363565b84600081905033600160a060020a031681600160a060020a031663075461726040518163ffffffff1660e060020a02815260040160206040518083038186803b15801561023057600080fd5b505afa158015610244573d6000803e3d6000fd5b505050506040513d602081101561025a57600080fd5b5051600160a060020a0316146102bb576040517f08c379a00000000000000000000000000000000000000000000000000000000081526004018080602001828103825260228152602001806104e46022913960400191505060405180910390fd5b33600160a060020a031687600160a060020a03167ee7283fcf5726344ed567dc39b1822ff824bc90f96c137b622781d3570b81ef888888886040518080602001806020018381038352878782818152602001925080828437600083820152601f01601f191690910184810383528581526020019050858580828437600083820152604051601f909101601f19169092018290039850909650505050505050a350505050505050565b84600081905033600160a060020a031681600160a060020a031663075461726040518163ffffffff1660e060020a02815260040160206040518083038186803b1580156103af57600080fd5b505afa1580156103c3573d6000803e3d6000fd5b505050506040513d60208110156103d957600080fd5b5051600160a060020a03161461043a576040517f08c379a00000000000000000000000000000000000000000000000000000000081526004018080602001828103825260228152602001806104e46022913960400191505060405180910390fd5b33600160a060020a031687600160a060020a03167fb8c028de5d50845d8e50bbc36728f4e9d523e16a1a431a299e8b216c7b2f5584888888886040518080602001806020018381038352878782818152602001925080828437600083820152601f01601f191690910184810383528581526020019050858580828437600083820152604051601f909101601f19169092018290039850909650505050505050a35050505050505056fe4d657461646174613a20496e76616c69642044617461546f6b656e204d696e746572a165627a7a72305820a6b5cd15ce0929ce2aac81df9fb0a5cd6142ec676cca6f64a5c98450cdfe8c700029",
  "source": "pragma solidity 0.5.7;\n// Copyright BigchainDB GmbH and Ocean Protocol contributors\n// SPDX-License-Identifier: (Apache-2.0 AND CC-BY-4.0)\n// Code is Apache-2.0 and docs are CC-BY-4.0\n\nimport '../interfaces/IERC20Template.sol';\n\n\n/**\n* @title Metadata\n*  \n* @dev Metadata stands for Decentralized Document. It allows publishers\n*      to publish their dataset metadata in decentralized way.\n*      It follows the Ocean DID Document standard: \n*      https://github.com/oceanprotocol/OEPs/blob/master/7/v0.2/README.md\n*/\ncontract Metadata {\n\n    event MetadataCreated(\n        address indexed dataToken,\n        address indexed createdBy,\n        bytes flags,\n        bytes data\n    );\n    event MetadataUpdated(\n        address indexed dataToken,\n        address indexed updatedBy,\n        bytes flags,\n        bytes data\n    );\n\n    modifier onlyDataTokenMinter(address dataToken)\n    {\n        IERC20Template token = IERC20Template(dataToken);\n        require(\n            token.minter() == msg.sender,\n            'Metadata: Invalid DataToken Minter'\n        );\n        _;\n    }\n\n    /**\n     * @dev create\n     *      creates/publishes new metadata/DDO document on-chain. \n     * @param dataToken refers to data token address\n     * @param flags special flags associated with metadata\n     * @param data referes to the actual metadata\n     */\n    function create(\n        address dataToken,\n        bytes calldata flags,\n        bytes calldata data\n    ) \n        external\n        onlyDataTokenMinter(dataToken)\n    {\n        emit MetadataCreated(\n            dataToken,\n            msg.sender,\n            flags,\n            data\n        );\n    }\n\n    /**\n     * @dev update\n     *      allows only datatoken minter(s) to update the DDO/metadata content\n     * @param dataToken refers to data token address\n     * @param flags special flags associated with metadata\n     * @param data referes to the actual metadata\n     */\n    function update(\n        address dataToken,\n        bytes calldata flags,\n        bytes calldata data\n    ) \n        external\n        onlyDataTokenMinter(dataToken)\n    {\n        emit MetadataUpdated(\n            dataToken,\n            msg.sender,\n            flags,\n            data\n        );\n    }\n}",
  "sourcePath": "/Users/ahmedali/Desktop/work/ocean-contracts/contracts/metadata/Metadata.sol",
  "compiler": {
    "name": "solc",
    "version": "0.5.7+commit.6da8b019.Emscripten.clang"
  },
  "schemaVersion": "3.2.4",
  "updatedAt": "2020-10-01T09:28:54.473Z",
  "devdoc": {
    "details": "Metadata stands for Decentralized Document. It allows publishers     to publish their dataset metadata in decentralized way.     It follows the Ocean DID Document standard:      https://github.com/oceanprotocol/OEPs/blob/master/7/v0.2/README.md",
    "methods": {
      "create(address,bytes,bytes)": {
        "details": "create     creates/publishes new metadata/DDO document on-chain. ",
        "params": {
          "data": "referes to the actual metadata",
          "dataToken": "refers to data token address",
          "flags": "special flags associated with metadata"
        }
      },
      "update(address,bytes,bytes)": {
        "details": "update     allows only datatoken minter(s) to update the DDO/metadata content",
        "params": {
          "data": "referes to the actual metadata",
          "dataToken": "refers to data token address",
          "flags": "special flags associated with metadata"
        }
      }
    },
    "title": "Metadata "
  },
  "userdoc": {
    "methods": {}
  }
}