{
  "contractName": "BConst",
  "abi": [
    {
      "constant": true,
      "inputs": [],
      "name": "MAX_TOTAL_WEIGHT",
      "outputs": [
        {
          "name": "",
          "type": "uint256"
        }
      ],
      "payable": false,
      "stateMutability": "view",
      "type": "function"
    },
    {
      "constant": true,
      "inputs": [],
      "name": "BPOW_PRECISION",
      "outputs": [
        {
          "name": "",
          "type": "uint256"
        }
      ],
      "payable": false,
      "stateMutability": "view",
      "type": "function"
    },
    {
      "constant": true,
      "inputs": [],
      "name": "MIN_WEIGHT",
      "outputs": [
        {
          "name": "",
          "type": "uint256"
        }
      ],
      "payable": false,
      "stateMutability": "view",
      "type": "function"
    },
    {
      "constant": true,
      "inputs": [],
      "name": "MIN_FEE",
      "outputs": [
        {
          "name": "",
          "type": "uint256"
        }
      ],
      "payable": false,
      "stateMutability": "view",
      "type": "function"
    },
    {
      "constant": true,
      "inputs": [],
      "name": "MIN_BALANCE",
      "outputs": [
        {
          "name": "",
          "type": "uint256"
        }
      ],
      "payable": false,
      "stateMutability": "view",
      "type": "function"
    },
    {
      "constant": true,
      "inputs": [],
      "name": "INIT_POOL_SUPPLY",
      "outputs": [
        {
          "name": "",
          "type": "uint256"
        }
      ],
      "payable": false,
      "stateMutability": "view",
      "type": "function"
    },
    {
      "constant": true,
      "inputs": [],
      "name": "MAX_OUT_RATIO",
      "outputs": [
        {
          "name": "",
          "type": "uint256"
        }
      ],
      "payable": false,
      "stateMutability": "view",
      "type": "function"
    },
    {
      "constant": true,
      "inputs": [],
      "name": "MAX_BOUND_TOKENS",
      "outputs": [
        {
          "name": "",
          "type": "uint256"
        }
      ],
      "payable": false,
      "stateMutability": "view",
      "type": "function"
    },
    {
      "constant": true,
      "inputs": [],
      "name": "MIN_BOUND_TOKENS",
      "outputs": [
        {
          "name": "",
          "type": "uint256"
        }
      ],
      "payable": false,
      "stateMutability": "view",
      "type": "function"
    },
    {
      "constant": true,
      "inputs": [],
      "name": "MIN_BPOW_BASE",
      "outputs": [
        {
          "name": "",
          "type": "uint256"
        }
      ],
      "payable": false,
      "stateMutability": "view",
      "type": "function"
    },
    {
      "constant": true,
      "inputs": [],
      "name": "MAX_FEE",
      "outputs": [
        {
          "name": "",
          "type": "uint256"
        }
      ],
      "payable": false,
      "stateMutability": "view",
      "type": "function"
    },
    {
      "constant": true,
      "inputs": [],
      "name": "MAX_BPOW_BASE",
      "outputs": [
        {
          "name": "",
          "type": "uint256"
        }
      ],
      "payable": false,
      "stateMutability": "view",
      "type": "function"
    },
    {
      "constant": true,
      "inputs": [],
      "name": "BONE",
      "outputs": [
        {
          "name": "",
          "type": "uint256"
        }
      ],
      "payable": false,
      "stateMutability": "view",
      "type": "function"
    },
    {
      "constant": true,
      "inputs": [],
      "name": "EXIT_FEE",
      "outputs": [
        {
          "name": "",
          "type": "uint256"
        }
      ],
      "payable": false,
      "stateMutability": "view",
      "type": "function"
    },
    {
      "constant": true,
      "inputs": [],
      "name": "MAX_WEIGHT",
      "outputs": [
        {
          "name": "",
          "type": "uint256"
        }
      ],
      "payable": false,
      "stateMutability": "view",
      "type": "function"
    },
    {
      "constant": true,
      "inputs": [],
      "name": "MAX_IN_RATIO",
      "outputs": [
        {
          "name": "",
          "type": "uint256"
        }
      ],
      "payable": false,
      "stateMutability": "view",
      "type": "function"
    }
  ],
  "bytecode": "0x608060405234801561001057600080fd5b5061027c806100206000396000f3fe608060405234801561001057600080fd5b506004361061011d576000357c010000000000000000000000000000000000000000000000000000000090048063b7b800a4116100b4578063c36596a611610083578063c36596a614610144578063c6580d1214610194578063e4a28a5214610122578063ec0930211461019c5761011d565b8063b7b800a414610174578063ba019dab1461017c578063bc063e1a14610184578063bc694ea21461018c5761011d565b8063867378c5116100f0578063867378c5146101545780639381cd2b1461015c578063992e2a9214610164578063b0e0d1361461016c5761011d565b806309a3bbe414610122578063189d00ca1461013c578063218b53821461014457806376c7a3c71461014c575b600080fd5b61012a6101a4565b60408051918252519081900360200190f35b61012a6101b1565b61012a6101c5565b61012a6101d1565b61012a6101e3565b61012a6101f7565b61012a610204565b61012a610210565b61012a610215565b61012a61021a565b61012a61021f565b61012a61022f565b61012a61023b565b61012a610240565b6802b5e3af16b188000081565b6402540be400670de0b6b3a76400005b0481565b670de0b6b3a764000081565b620f4240670de0b6b3a76400006101c1565b64e8d4a51000670de0b6b3a76400006101c1565b68056bc75e2d6310000081565b6704a03ce68d21555681565b600881565b600281565b600181565b600a670de0b6b3a76400006101c1565b671bc16d674ec7ffff81565b600081565b6002670de0b6b3a76400006101c156fea165627a7a72305820b46f268d2c67a9b0ee679785a3257a94dd2530719d2431e634aaa7de998e78d30029",
  "source": "// This program is free software: you can redistribute it and/or modify\n// it under the terms of the GNU General Public License as published by\n// the Free Software Foundation, either version 3 of the License, or\n// (at your option) any later version.\n\n// This program is distributed in the hope that it will be useful,\n// but WITHOUT ANY WARRANTY; without even the implied warranty of\n// MERCHANTABILITY or FITNESS FOR A PARTICULAR PURPOSE.  See the\n// GNU General Public License for more details.\n\n// You should have received a copy of the GNU General Public License\n// along with this program.  If not, see <http://www.gnu.org/licenses/>.\n\npragma solidity 0.5.7;\n\ncontract BConst {\n    uint public constant BONE              = 10**18;\n\n    uint public constant MIN_BOUND_TOKENS  = 2;\n    uint public constant MAX_BOUND_TOKENS  = 8;\n\n    uint public constant MIN_FEE           = BONE / 10**6;\n    uint public constant MAX_FEE           = BONE / 10;\n    uint public constant EXIT_FEE          = 0;\n\n    uint public constant MIN_WEIGHT        = BONE;\n    uint public constant MAX_WEIGHT        = BONE * 50;\n    uint public constant MAX_TOTAL_WEIGHT  = BONE * 50;\n    uint public constant MIN_BALANCE       = BONE / 10**12;\n\n    uint public constant INIT_POOL_SUPPLY  = BONE * 100;\n\n    uint public constant MIN_BPOW_BASE     = 1 wei;\n    uint public constant MAX_BPOW_BASE     = (2 * BONE) - 1 wei;\n    uint public constant BPOW_PRECISION    = BONE / 10**10;\n\n    uint public constant MAX_IN_RATIO      = BONE / 2;\n    uint public constant MAX_OUT_RATIO     = (BONE / 3) + 1 wei;\n}\n",
  "sourcePath": "/home/trentmc/code/contracts/contracts/balancer/BConst.sol",
  "compiler": {
    "name": "solc",
    "version": "0.5.7+commit.6da8b019.Emscripten.clang"
  },
  "schemaVersion": "3.2.4",
  "updatedAt": "2020-11-27T13:03:35.498Z",
  "devdoc": {
    "methods": {}
  },
  "userdoc": {
    "methods": {}
  }
}