{
  "contractName": "BMath",
  "abi": [
    {
      "constant": true,
      "inputs": [],
      "name": "MAX_TOTAL_WEIGHT",
      "outputs": [
        {
          "name": "",
          "type": "uint256"
        }
      ],
      "payable": false,
      "stateMutability": "view",
      "type": "function"
    },
    {
      "constant": true,
      "inputs": [],
      "name": "BPOW_PRECISION",
      "outputs": [
        {
          "name": "",
          "type": "uint256"
        }
      ],
      "payable": false,
      "stateMutability": "view",
      "type": "function"
    },
    {
      "constant": true,
      "inputs": [],
      "name": "MIN_WEIGHT",
      "outputs": [
        {
          "name": "",
          "type": "uint256"
        }
      ],
      "payable": false,
      "stateMutability": "view",
      "type": "function"
    },
    {
      "constant": true,
      "inputs": [],
      "name": "MIN_FEE",
      "outputs": [
        {
          "name": "",
          "type": "uint256"
        }
      ],
      "payable": false,
      "stateMutability": "view",
      "type": "function"
    },
    {
      "constant": true,
      "inputs": [],
      "name": "MIN_BALANCE",
      "outputs": [
        {
          "name": "",
          "type": "uint256"
        }
      ],
      "payable": false,
      "stateMutability": "view",
      "type": "function"
    },
    {
      "constant": true,
      "inputs": [],
      "name": "INIT_POOL_SUPPLY",
      "outputs": [
        {
          "name": "",
          "type": "uint256"
        }
      ],
      "payable": false,
      "stateMutability": "view",
      "type": "function"
    },
    {
      "constant": true,
      "inputs": [],
      "name": "MAX_OUT_RATIO",
      "outputs": [
        {
          "name": "",
          "type": "uint256"
        }
      ],
      "payable": false,
      "stateMutability": "view",
      "type": "function"
    },
    {
      "constant": true,
      "inputs": [],
      "name": "MAX_BOUND_TOKENS",
      "outputs": [
        {
          "name": "",
          "type": "uint256"
        }
      ],
      "payable": false,
      "stateMutability": "view",
      "type": "function"
    },
    {
      "constant": true,
      "inputs": [],
      "name": "MIN_BOUND_TOKENS",
      "outputs": [
        {
          "name": "",
          "type": "uint256"
        }
      ],
      "payable": false,
      "stateMutability": "view",
      "type": "function"
    },
    {
      "constant": true,
      "inputs": [],
      "name": "MIN_BPOW_BASE",
      "outputs": [
        {
          "name": "",
          "type": "uint256"
        }
      ],
      "payable": false,
      "stateMutability": "view",
      "type": "function"
    },
    {
      "constant": true,
      "inputs": [],
      "name": "MAX_FEE",
      "outputs": [
        {
          "name": "",
          "type": "uint256"
        }
      ],
      "payable": false,
      "stateMutability": "view",
      "type": "function"
    },
    {
      "constant": true,
      "inputs": [],
      "name": "MAX_BPOW_BASE",
      "outputs": [
        {
          "name": "",
          "type": "uint256"
        }
      ],
      "payable": false,
      "stateMutability": "view",
      "type": "function"
    },
    {
      "constant": true,
      "inputs": [],
      "name": "BONE",
      "outputs": [
        {
          "name": "",
          "type": "uint256"
        }
      ],
      "payable": false,
      "stateMutability": "view",
      "type": "function"
    },
    {
      "constant": true,
      "inputs": [],
      "name": "EXIT_FEE",
      "outputs": [
        {
          "name": "",
          "type": "uint256"
        }
      ],
      "payable": false,
      "stateMutability": "view",
      "type": "function"
    },
    {
      "constant": true,
      "inputs": [],
      "name": "MAX_WEIGHT",
      "outputs": [
        {
          "name": "",
          "type": "uint256"
        }
      ],
      "payable": false,
      "stateMutability": "view",
      "type": "function"
    },
    {
      "constant": true,
      "inputs": [],
      "name": "MAX_IN_RATIO",
      "outputs": [
        {
          "name": "",
          "type": "uint256"
        }
      ],
      "payable": false,
      "stateMutability": "view",
      "type": "function"
    },
    {
      "constant": true,
      "inputs": [
        {
          "name": "tokenBalanceIn",
          "type": "uint256"
        },
        {
          "name": "tokenWeightIn",
          "type": "uint256"
        },
        {
          "name": "tokenBalanceOut",
          "type": "uint256"
        },
        {
          "name": "tokenWeightOut",
          "type": "uint256"
        },
        {
          "name": "swapFee",
          "type": "uint256"
        }
      ],
      "name": "calcSpotPrice",
      "outputs": [
        {
          "name": "spotPrice",
          "type": "uint256"
        }
      ],
      "payable": false,
      "stateMutability": "pure",
      "type": "function"
    },
    {
      "constant": true,
      "inputs": [
        {
          "name": "tokenBalanceIn",
          "type": "uint256"
        },
        {
          "name": "tokenWeightIn",
          "type": "uint256"
        },
        {
          "name": "tokenBalanceOut",
          "type": "uint256"
        },
        {
          "name": "tokenWeightOut",
          "type": "uint256"
        },
        {
          "name": "tokenAmountIn",
          "type": "uint256"
        },
        {
          "name": "swapFee",
          "type": "uint256"
        }
      ],
      "name": "calcOutGivenIn",
      "outputs": [
        {
          "name": "tokenAmountOut",
          "type": "uint256"
        }
      ],
      "payable": false,
      "stateMutability": "pure",
      "type": "function"
    },
    {
      "constant": true,
      "inputs": [
        {
          "name": "tokenBalanceIn",
          "type": "uint256"
        },
        {
          "name": "tokenWeightIn",
          "type": "uint256"
        },
        {
          "name": "tokenBalanceOut",
          "type": "uint256"
        },
        {
          "name": "tokenWeightOut",
          "type": "uint256"
        },
        {
          "name": "tokenAmountOut",
          "type": "uint256"
        },
        {
          "name": "swapFee",
          "type": "uint256"
        }
      ],
      "name": "calcInGivenOut",
      "outputs": [
        {
          "name": "tokenAmountIn",
          "type": "uint256"
        }
      ],
      "payable": false,
      "stateMutability": "pure",
      "type": "function"
    },
    {
      "constant": true,
      "inputs": [
        {
          "name": "tokenBalanceIn",
          "type": "uint256"
        },
        {
          "name": "tokenWeightIn",
          "type": "uint256"
        },
        {
          "name": "poolSupply",
          "type": "uint256"
        },
        {
          "name": "totalWeight",
          "type": "uint256"
        },
        {
          "name": "tokenAmountIn",
          "type": "uint256"
        },
        {
          "name": "swapFee",
          "type": "uint256"
        }
      ],
      "name": "calcPoolOutGivenSingleIn",
      "outputs": [
        {
          "name": "poolAmountOut",
          "type": "uint256"
        }
      ],
      "payable": false,
      "stateMutability": "pure",
      "type": "function"
    },
    {
      "constant": true,
      "inputs": [
        {
          "name": "tokenBalanceIn",
          "type": "uint256"
        },
        {
          "name": "tokenWeightIn",
          "type": "uint256"
        },
        {
          "name": "poolSupply",
          "type": "uint256"
        },
        {
          "name": "totalWeight",
          "type": "uint256"
        },
        {
          "name": "poolAmountOut",
          "type": "uint256"
        },
        {
          "name": "swapFee",
          "type": "uint256"
        }
      ],
      "name": "calcSingleInGivenPoolOut",
      "outputs": [
        {
          "name": "tokenAmountIn",
          "type": "uint256"
        }
      ],
      "payable": false,
      "stateMutability": "pure",
      "type": "function"
    },
    {
      "constant": true,
      "inputs": [
        {
          "name": "tokenBalanceOut",
          "type": "uint256"
        },
        {
          "name": "tokenWeightOut",
          "type": "uint256"
        },
        {
          "name": "poolSupply",
          "type": "uint256"
        },
        {
          "name": "totalWeight",
          "type": "uint256"
        },
        {
          "name": "poolAmountIn",
          "type": "uint256"
        },
        {
          "name": "swapFee",
          "type": "uint256"
        }
      ],
      "name": "calcSingleOutGivenPoolIn",
      "outputs": [
        {
          "name": "tokenAmountOut",
          "type": "uint256"
        }
      ],
      "payable": false,
      "stateMutability": "pure",
      "type": "function"
    },
    {
      "constant": true,
      "inputs": [
        {
          "name": "tokenBalanceOut",
          "type": "uint256"
        },
        {
          "name": "tokenWeightOut",
          "type": "uint256"
        },
        {
          "name": "poolSupply",
          "type": "uint256"
        },
        {
          "name": "totalWeight",
          "type": "uint256"
        },
        {
          "name": "tokenAmountOut",
          "type": "uint256"
        },
        {
          "name": "swapFee",
          "type": "uint256"
        }
      ],
      "name": "calcPoolInGivenSingleOut",
      "outputs": [
        {
          "name": "poolAmountIn",
          "type": "uint256"
        }
      ],
      "payable": false,
      "stateMutability": "pure",
      "type": "function"
    }
  ],
  "bytecode": "0x608060405234801561001057600080fd5b50610e40806100206000396000f3fe608060405234801561001057600080fd5b506004361061016a576000357c010000000000000000000000000000000000000000000000000000000090048063a221ee49116100e0578063bc694ea211610099578063bc694ea214610335578063c36596a614610191578063c6580d121461033d578063e4a28a521461016f578063ec09302114610345578063f8d6aed41461034d5761016a565b8063a221ee49146102a5578063b0e0d136146102da578063b7b800a4146102e2578063ba019dab146102ea578063ba9530a6146102f2578063bc063e1a1461032d5761016a565b806382f652ad1161013257806382f652ad146101dc5780638656b65314610217578063867378c514610252578063892980121461025a5780639381cd2b14610295578063992e2a921461029d5761016a565b806309a3bbe41461016f578063189d00ca14610189578063218b5382146101915780635c1bbaf71461019957806376c7a3c7146101d4575b600080fd5b610177610388565b60408051918252519081900360200190f35b610177610395565b6101776103a9565b610177600480360360c08110156101af57600080fd5b5080359060208101359060408101359060608101359060808101359060a001356103b5565b61017761046d565b610177600480360360c08110156101f257600080fd5b5080359060208101359060408101359060608101359060808101359060a0013561047f565b610177600480360360c081101561022d57600080fd5b5080359060208101359060408101359060608101359060808101359060a0013561053e565b6101776105df565b610177600480360360c081101561027057600080fd5b5080359060208101359060408101359060608101359060808101359060a001356105f3565b6101776106a3565b6101776106b0565b610177600480360360a08110156102bb57600080fd5b50803590602081013590604081013590606081013590608001356106bc565b610177610721565b610177610726565b61017761072b565b610177600480360360c081101561030857600080fd5b5080359060208101359060408101359060608101359060808101359060a00135610730565b6101776107b1565b6101776107c1565b6101776107cd565b6101776107d2565b610177600480360360c081101561036357600080fd5b5080359060208101359060408101359060608101359060808101359060a001356107e2565b6802b5e3af16b188000081565b6402540be400670de0b6b3a76400005b0481565b670de0b6b3a764000081565b6000806103c28786610865565b905060006103d087866109ae565b905060006103de8289610865565b905060006103f4670de0b6b3a764000085610865565b905060006104028383610a12565b90506000610410828e610b35565b9050600061041e828f610c17565b9050600061043d610437670de0b6b3a76400008a610c17565b8b610b35565b905061045a82610455670de0b6b3a764000084610c17565b610865565b9f9e505050505050505050505050505050565b620f4240670de0b6b3a76400006103a5565b60008061048c8786610865565b905060006104a2670de0b6b3a764000083610c17565b905060006104b08286610b35565b905060006104ca87610455670de0b6b3a764000085610c17565b905060006104d88c83610c17565b905060006104e6828e610865565b905060006104f48288610a12565b90506000610502828e610b35565b905060006105108e83610c17565b905061052981610455670de0b6b3a76400006000610c17565b99505050505050505050509695505050505050565b60008061054b8786610865565b9050600061056a610564670de0b6b3a764000084610c17565b85610b35565b9050600061058986610584670de0b6b3a764000085610c17565b610b35565b905060006105978b836109ae565b905060006105a5828d610865565b905060006105b38287610a12565b905060006105c1828d610b35565b90506105cd818d610c17565b9e9d5050505050505050505050505050565b64e8d4a51000670de0b6b3a76400006103a5565b6000806106008786610865565b9050600061061b85610584670de0b6b3a76400006000610c17565b905060006106298883610c17565b90506000610637828a610865565b9050600061065682610651670de0b6b3a764000088610865565b610a12565b90506000610664828e610b35565b905060006106728e83610c17565b9050600061068b610437670de0b6b3a76400008a610c17565b905061045a82610584670de0b6b3a764000084610c17565b68056bc75e2d6310000081565b6704a03ce68d21555681565b6000806106c98787610865565b905060006106d78686610865565b905060006106e58383610865565b90506000610707670de0b6b3a7640000610455670de0b6b3a764000089610c17565b90506107138282610b35565b9a9950505050505050505050565b600881565b600281565b600181565b60008061073d8786610865565b90506000610753670de0b6b3a764000085610c17565b905061075f8582610b35565b905060006107718a6104558c856109ae565b9050600061077f8285610a12565b90506000610795670de0b6b3a764000083610c17565b90506107a18a82610b35565b9c9b505050505050505050505050565b600a670de0b6b3a76400006103a5565b671bc16d674ec7ffff81565b600081565b6002670de0b6b3a76400006103a5565b6000806107ef8588610865565b905060006107fd8786610c17565b9050600061080b8883610865565b905060006108198285610a12565b905061082d81670de0b6b3a7640000610c17565b9050610841670de0b6b3a764000087610c17565b94506108566108508c83610b35565b86610865565b9b9a5050505050505050505050565b6000816108bc576040805160e560020a62461bcd02815260206004820152600c60248201527f4552525f4449565f5a45524f0000000000000000000000000000000000000000604482015290519081900360640190fd5b670de0b6b3a764000083028315806108e45750670de0b6b3a76400008482816108e157fe5b04145b610938576040805160e560020a62461bcd02815260206004820152601060248201527f4552525f4449565f494e5445524e414c00000000000000000000000000000000604482015290519081900360640190fd5b60028304810181811015610996576040805160e560020a62461bcd02815260206004820152601060248201527f4552525f4449565f494e5445524e414c00000000000000000000000000000000604482015290519081900360640190fd5b60008482816109a157fe5b0493505050505b92915050565b600082820183811015610a0b576040805160e560020a62461bcd02815260206004820152601060248201527f4552525f4144445f4f564552464c4f5700000000000000000000000000000000604482015290519081900360640190fd5b9392505050565b60006001831015610a6d576040805160e560020a62461bcd02815260206004820152601560248201527f4552525f42504f575f424153455f544f4f5f4c4f570000000000000000000000604482015290519081900360640190fd5b671bc16d674ec7ffff831115610acd576040805160e560020a62461bcd02815260206004820152601660248201527f4552525f42504f575f424153455f544f4f5f4849474800000000000000000000604482015290519081900360640190fd5b6000610ad883610c88565b90506000610ae68483610c17565b90506000610afc86610af785610ca3565b610cb1565b905081610b0d5792506109a8915050565b6000610b1e87846305f5e100610d11565b9050610b2a8282610b35565b979650505050505050565b6000828202831580610b4f575082848281610b4c57fe5b04145b610ba3576040805160e560020a62461bcd02815260206004820152601060248201527f4552525f4d554c5f4f564552464c4f5700000000000000000000000000000000604482015290519081900360640190fd5b6706f05b59d3b20000810181811015610c06576040805160e560020a62461bcd02815260206004820152601060248201527f4552525f4d554c5f4f564552464c4f5700000000000000000000000000000000604482015290519081900360640190fd5b6000670de0b6b3a7640000826109a1565b6000806000610c268585610def565b915091508015610c80576040805160e560020a62461bcd02815260206004820152601160248201527f4552525f5355425f554e444552464c4f57000000000000000000000000000000604482015290519081900360640190fd5b509392505050565b6000670de0b6b3a7640000610c9c83610ca3565b0292915050565b670de0b6b3a7640000900490565b6000828160028406610ccb57670de0b6b3a7640000610ccd565b815b90506002840493505b8315610d0957610ce68283610b35565b91506002840615610cfe57610cfb8183610b35565b90505b600284049350610cd6565b949350505050565b6000828180610d2887670de0b6b3a7640000610def565b9092509050670de0b6b3a764000080600060015b888410610de0576000670de0b6b3a764000082029050600080610d708a610d6b85670de0b6b3a7640000610c17565b610def565b91509150610d8287610584848c610b35565b9650610d8e8784610865565b965086610d9d57505050610de0565b8715610da7579315935b8015610db1579315935b8415610dc857610dc18688610c17565b9550610dd5565b610dd286886109ae565b95505b505050600101610d3c565b50909998505050505050505050565b600080828410610e055750508082036000610e0d565b505081810360015b925092905056fea165627a7a72305820b5e3fc304a8af9ebdd8d58af12beea273b2ea405984be54b54b824c40d6905500029",
  "source": "// This program is free software: you can redistribute it and/or modify\n// it under the terms of the GNU General Public License as published by\n// the Free Software Foundation, either version 3 of the License, or\n// (at your option) any later version.\n\n// This program is distributed in the hope that it will be useful,\n// but WITHOUT ANY WARRANTY; without even the implied warranty of\n// MERCHANTABILITY or FITNESS FOR A PARTICULAR PURPOSE.  See the\n// GNU General Public License for more details.\n\n// You should have received a copy of the GNU General Public License\n// along with this program.  If not, see <http://www.gnu.org/licenses/>.\n\npragma solidity 0.5.7;\n\nimport './BNum.sol';\n\ncontract BMath is BConst, BNum {\n    /**********************************************************************************************\n    // calcSpotPrice                                                                             //\n    // sP = spotPrice                                                                            //\n    // bI = tokenBalanceIn                ( bI / wI )         1                                  //\n    // bO = tokenBalanceOut         sP =  -----------  *  ----------                             //\n    // wI = tokenWeightIn                 ( bO / wO )     ( 1 - sF )                             //\n    // wO = tokenWeightOut                                                                       //\n    // sF = swapFee                                                                              //\n    **********************************************************************************************/\n    function calcSpotPrice(\n        uint tokenBalanceIn,\n        uint tokenWeightIn,\n        uint tokenBalanceOut,\n        uint tokenWeightOut,\n        uint swapFee\n    )\n        public pure\n        returns (uint spotPrice)\n    {\n        uint numer = bdiv(tokenBalanceIn, tokenWeightIn);\n        uint denom = bdiv(tokenBalanceOut, tokenWeightOut);\n        uint ratio = bdiv(numer, denom);\n        uint scale = bdiv(BONE, bsub(BONE, swapFee));\n        return  (spotPrice = bmul(ratio, scale));\n    }\n\n    /**********************************************************************************************\n    // calcOutGivenIn                                                                            //\n    // aO = tokenAmountOut                                                                       //\n    // bO = tokenBalanceOut                                                                      //\n    // bI = tokenBalanceIn              /      /            bI             \\    (wI / wO) \\      //\n    // aI = tokenAmountIn    aO = bO * |  1 - | --------------------------  | ^            |     //\n    // wI = tokenWeightIn               \\      \\ ( bI + ( aI * ( 1 - sF )) /              /      //\n    // wO = tokenWeightOut                                                                       //\n    // sF = swapFee                                                                              //\n    **********************************************************************************************/\n    function calcOutGivenIn(\n        uint tokenBalanceIn,\n        uint tokenWeightIn,\n        uint tokenBalanceOut,\n        uint tokenWeightOut,\n        uint tokenAmountIn,\n        uint swapFee\n    )\n        public pure\n        returns (uint tokenAmountOut)\n    {\n        uint weightRatio = bdiv(tokenWeightIn, tokenWeightOut);\n        uint adjustedIn = bsub(BONE, swapFee);\n        adjustedIn = bmul(tokenAmountIn, adjustedIn);\n        uint y = bdiv(tokenBalanceIn, badd(tokenBalanceIn, adjustedIn));\n        uint foo = bpow(y, weightRatio);\n        uint bar = bsub(BONE, foo);\n        tokenAmountOut = bmul(tokenBalanceOut, bar);\n        return tokenAmountOut;\n    }\n\n    /**********************************************************************************************\n    // calcInGivenOut                                                                            //\n    // aI = tokenAmountIn                                                                        //\n    // bO = tokenBalanceOut               /  /     bO      \\    (wO / wI)      \\                 //\n    // bI = tokenBalanceIn          bI * |  | ------------  | ^            - 1  |                //\n    // aO = tokenAmountOut    aI =        \\  \\ ( bO - aO ) /                   /                 //\n    // wI = tokenWeightIn           --------------------------------------------                 //\n    // wO = tokenWeightOut                          ( 1 - sF )                                   //\n    // sF = swapFee                                                                              //\n    **********************************************************************************************/\n    function calcInGivenOut(\n        uint tokenBalanceIn,\n        uint tokenWeightIn,\n        uint tokenBalanceOut,\n        uint tokenWeightOut,\n        uint tokenAmountOut,\n        uint swapFee\n    )\n        public pure\n        returns (uint tokenAmountIn)\n    {\n        uint weightRatio = bdiv(tokenWeightOut, tokenWeightIn);\n        uint diff = bsub(tokenBalanceOut, tokenAmountOut);\n        uint y = bdiv(tokenBalanceOut, diff);\n        uint foo = bpow(y, weightRatio);\n        foo = bsub(foo, BONE);\n        tokenAmountIn = bsub(BONE, swapFee);\n        tokenAmountIn = bdiv(bmul(tokenBalanceIn, foo), tokenAmountIn);\n        return tokenAmountIn;\n    }\n\n    /**********************************************************************************************\n    // calcPoolOutGivenSingleIn                                                                  //\n    // pAo = poolAmountOut         /                                              \\              //\n    // tAi = tokenAmountIn        ///      /     //    wI \\      \\\\       \\     wI \\             //\n    // wI = tokenWeightIn        //| tAi *| 1 - || 1 - --  | * sF || + tBi \\    --  \\            //\n    // tW = totalWeight     pAo=||  \\      \\     \\\\    tW /      //         | ^ tW   | * pS - pS //\n    // tBi = tokenBalanceIn      \\\\  ------------------------------------- /        /            //\n    // pS = poolSupply            \\\\                    tBi               /        /             //\n    // sF = swapFee                \\                                              /              //\n    **********************************************************************************************/\n    function calcPoolOutGivenSingleIn(\n        uint tokenBalanceIn,\n        uint tokenWeightIn,\n        uint poolSupply,\n        uint totalWeight,\n        uint tokenAmountIn,\n        uint swapFee\n    )\n        public pure\n        returns (uint poolAmountOut)\n    {\n        // Charge the trading fee for the proportion of tokenAi\n        ///  which is implicitly traded to the other pool tokens.\n        // That proportion is (1- weightTokenIn)\n        // tokenAiAfterFee = tAi * (1 - (1-weightTi) * poolFee);\n        uint normalizedWeight = bdiv(tokenWeightIn, totalWeight);\n        uint zaz = bmul(bsub(BONE, normalizedWeight), swapFee); \n        uint tokenAmountInAfterFee = bmul(tokenAmountIn, bsub(BONE, zaz));\n\n        uint newTokenBalanceIn = badd(tokenBalanceIn, tokenAmountInAfterFee);\n        uint tokenInRatio = bdiv(newTokenBalanceIn, tokenBalanceIn);\n\n        // uint newPoolSupply = (ratioTi ^ weightTi) * poolSupply;\n        uint poolRatio = bpow(tokenInRatio, normalizedWeight);\n        uint newPoolSupply = bmul(poolRatio, poolSupply);\n        poolAmountOut = bsub(newPoolSupply, poolSupply);\n        return poolAmountOut;\n    }\n\n    /**********************************************************************************************\n    // calcSingleInGivenPoolOut                                                                  //\n    // tAi = tokenAmountIn              //(pS + pAo)\\     /    1    \\\\                           //\n    // pS = poolSupply                 || ---------  | ^ | --------- || * bI - bI                //\n    // pAo = poolAmountOut              \\\\    pS    /     \\(wI / tW)//                           //\n    // bI = balanceIn          tAi =  --------------------------------------------               //\n    // wI = weightIn                              /      wI  \\                                   //\n    // tW = totalWeight                          |  1 - ----  |  * sF                            //\n    // sF = swapFee                               \\      tW  /                                   //\n    **********************************************************************************************/\n    function calcSingleInGivenPoolOut(\n        uint tokenBalanceIn,\n        uint tokenWeightIn,\n        uint poolSupply,\n        uint totalWeight,\n        uint poolAmountOut,\n        uint swapFee\n    )\n        public pure\n        returns (uint tokenAmountIn)\n    {\n        uint normalizedWeight = bdiv(tokenWeightIn, totalWeight);\n        uint newPoolSupply = badd(poolSupply, poolAmountOut);\n        uint poolRatio = bdiv(newPoolSupply, poolSupply);\n      \n        //uint newBalTi = poolRatio^(1/weightTi) * balTi;\n        uint boo = bdiv(BONE, normalizedWeight); \n        uint tokenInRatio = bpow(poolRatio, boo);\n        uint newTokenBalanceIn = bmul(tokenInRatio, tokenBalanceIn);\n        uint tokenAmountInAfterFee = bsub(newTokenBalanceIn, tokenBalanceIn);\n        // Do reverse order of fees charged in joinswap_ExternAmountIn, this way \n        //     ``` pAo == joinswap_ExternAmountIn(Ti, joinswap_PoolAmountOut(pAo, Ti)) ```\n        //uint tAi = tAiAfterFee / (1 - (1-weightTi) * swapFee) ;\n        uint zar = bmul(bsub(BONE, normalizedWeight), swapFee);\n        tokenAmountIn = bdiv(tokenAmountInAfterFee, bsub(BONE, zar));\n        return tokenAmountIn;\n    }\n\n    /**********************************************************************************************\n    // calcSingleOutGivenPoolIn                                                                  //\n    // tAo = tokenAmountOut            /      /                                             \\\\   //\n    // bO = tokenBalanceOut           /      // pS - (pAi * (1 - eF)) \\     /    1    \\      \\\\  //\n    // pAi = poolAmountIn            | bO - || ----------------------- | ^ | --------- | * b0 || //\n    // ps = poolSupply                \\      \\\\          pS           /     \\(wO / tW)/      //  //\n    // wI = tokenWeightIn      tAo =   \\      \\                                             //   //\n    // tW = totalWeight                    /     /      wO \\       \\                             //\n    // sF = swapFee                    *  | 1 - |  1 - ---- | * sF  |                            //\n    // eF = exitFee                        \\     \\      tW /       /                             //\n    **********************************************************************************************/\n    function calcSingleOutGivenPoolIn(\n        uint tokenBalanceOut,\n        uint tokenWeightOut,\n        uint poolSupply,\n        uint totalWeight,\n        uint poolAmountIn,\n        uint swapFee\n    )\n        public pure\n        returns (uint tokenAmountOut)\n    {\n        uint normalizedWeight = bdiv(tokenWeightOut, totalWeight);\n        // charge exit fee on the pool token side\n        // pAiAfterExitFee = pAi*(1-exitFee)\n        uint poolAmountInAfterExitFee = bmul(\n            poolAmountIn, \n            bsub(BONE, EXIT_FEE)\n        );\n        uint newPoolSupply = bsub(poolSupply, poolAmountInAfterExitFee);\n        uint poolRatio = bdiv(newPoolSupply, poolSupply);\n     \n        // newBalTo = poolRatio^(1/weightTo) * balTo;\n        uint tokenOutRatio = bpow(poolRatio, bdiv(BONE, normalizedWeight));\n        uint newTokenBalanceOut = bmul(tokenOutRatio, tokenBalanceOut);\n\n        uint tokenAmountOutBeforeSwapFee = bsub(\n            tokenBalanceOut, \n            newTokenBalanceOut\n        );\n\n        // charge swap fee on the output token side \n        //uint tAo = tAoBeforeSwapFee * (1 - (1-weightTo) * swapFee)\n        uint zaz = bmul(bsub(BONE, normalizedWeight), swapFee); \n        tokenAmountOut = bmul(tokenAmountOutBeforeSwapFee, bsub(BONE, zaz));\n        return tokenAmountOut;\n    }\n\n    /**********************************************************************************************\n    // calcPoolInGivenSingleOut                                                                  //\n    // pAi = poolAmountIn               // /               tAo             \\\\     / wO \\     \\   //\n    // bO = tokenBalanceOut            // | bO - -------------------------- |\\   | ---- |     \\  //\n    // tAo = tokenAmountOut      pS - ||   \\     1 - ((1 - (tO / tW)) * sF)/  | ^ \\ tW /  * pS | //\n    // ps = poolSupply                 \\\\ -----------------------------------/                /  //\n    // wO = tokenWeightOut  pAi =       \\\\               bO                 /                /   //\n    // tW = totalWeight           -------------------------------------------------------------  //\n    // sF = swapFee                                        ( 1 - eF )                            //\n    // eF = exitFee                                                                              //\n    **********************************************************************************************/\n    function calcPoolInGivenSingleOut(\n        uint tokenBalanceOut,\n        uint tokenWeightOut,\n        uint poolSupply,\n        uint totalWeight,\n        uint tokenAmountOut,\n        uint swapFee\n    )\n        public pure\n        returns (uint poolAmountIn)\n    {\n\n        // charge swap fee on the output token side \n        uint normalizedWeight = bdiv(tokenWeightOut, totalWeight);\n        //uint tAoBeforeSwapFee = tAo / (1 - (1-weightTo) * swapFee) ;\n        uint zoo = bsub(BONE, normalizedWeight);\n        uint zar = bmul(zoo, swapFee); \n        uint tokenAmountOutBeforeSwapFee = bdiv(\n            tokenAmountOut, \n            bsub(BONE, zar)\n        );\n\n        uint newTokenBalanceOut = bsub(\n            tokenBalanceOut, \n            tokenAmountOutBeforeSwapFee\n        );\n        uint tokenOutRatio = bdiv(newTokenBalanceOut, tokenBalanceOut);\n\n        //uint newPoolSupply = (ratioTo ^ weightTo) * poolSupply;\n        uint poolRatio = bpow(tokenOutRatio, normalizedWeight);\n        uint newPoolSupply = bmul(poolRatio, poolSupply);\n        uint poolAmountInAfterExitFee = bsub(poolSupply, newPoolSupply);\n\n        // charge exit fee on the pool token side\n        // pAi = pAiAfterExitFee/(1-exitFee)\n        poolAmountIn = bdiv(poolAmountInAfterExitFee, bsub(BONE, EXIT_FEE));\n        return poolAmountIn;\n    }\n\n\n}\n",
  "sourcePath": "/home/trentmc/code/contracts/contracts/balancer/BMath.sol",
  "compiler": {
    "name": "solc",
    "version": "0.5.7+commit.6da8b019.Emscripten.clang"
  },
  "schemaVersion": "3.2.4",
  "updatedAt": "2020-11-27T16:04:11.279Z",
  "devdoc": {
    "methods": {}
  },
  "userdoc": {
    "methods": {
      "calcInGivenOut(uint256,uint256,uint256,uint256,uint256,uint256)": {
        "notice": "******************************************************************************************** // calcInGivenOut                                                                            // // aI = tokenAmountIn                                                                        // // bO = tokenBalanceOut               /  /     bO      \\    (wO / wI)      \\                 // // bI = tokenBalanceIn          bI * |  | ------------  | ^            - 1  |                // // aO = tokenAmountOut    aI =        \\  \\ ( bO - aO ) /                   /                 // // wI = tokenWeightIn           --------------------------------------------                 // // wO = tokenWeightOut                          ( 1 - sF )                                   // // sF = swapFee                                                                              //*********************************************************************************************"
      },
      "calcOutGivenIn(uint256,uint256,uint256,uint256,uint256,uint256)": {
        "notice": "******************************************************************************************** // calcOutGivenIn                                                                            // // aO = tokenAmountOut                                                                       // // bO = tokenBalanceOut                                                                      // // bI = tokenBalanceIn              /      /            bI             \\    (wI / wO) \\      // // aI = tokenAmountIn    aO = bO * |  1 - | --------------------------  | ^            |     // // wI = tokenWeightIn               \\      \\ ( bI + ( aI * ( 1 - sF )) /              /      // // wO = tokenWeightOut                                                                       // // sF = swapFee                                                                              //*********************************************************************************************"
      },
      "calcPoolInGivenSingleOut(uint256,uint256,uint256,uint256,uint256,uint256)": {
        "notice": "******************************************************************************************** // calcPoolInGivenSingleOut                                                                  // // pAi = poolAmountIn               // /               tAo             \\\\     / wO \\     \\   // // bO = tokenBalanceOut            // | bO - -------------------------- |\\   | ---- |     \\  // // tAo = tokenAmountOut      pS - ||   \\     1 - ((1 - (tO / tW)) * sF)/  | ^ \\ tW /  * pS | // // ps = poolSupply                 \\\\ -----------------------------------/                /  // // wO = tokenWeightOut  pAi =       \\\\               bO                 /                /   // // tW = totalWeight           -------------------------------------------------------------  // // sF = swapFee                                        ( 1 - eF )                            // // eF = exitFee                                                                              //*********************************************************************************************"
      },
      "calcPoolOutGivenSingleIn(uint256,uint256,uint256,uint256,uint256,uint256)": {
        "notice": "******************************************************************************************** // calcPoolOutGivenSingleIn                                                                  // // pAo = poolAmountOut         /                                              \\              // // tAi = tokenAmountIn        ///      /     //    wI \\      \\\\       \\     wI \\             // // wI = tokenWeightIn        //| tAi *| 1 - || 1 - --  | * sF || + tBi \\    --  \\            // // tW = totalWeight     pAo=||  \\      \\     \\\\    tW /      //         | ^ tW   | * pS - pS // // tBi = tokenBalanceIn      \\\\  ------------------------------------- /        /            // // pS = poolSupply            \\\\                    tBi               /        /             // // sF = swapFee                \\                                              /              //*********************************************************************************************"
      },
      "calcSingleInGivenPoolOut(uint256,uint256,uint256,uint256,uint256,uint256)": {
        "notice": "******************************************************************************************** // calcSingleInGivenPoolOut                                                                  // // tAi = tokenAmountIn              //(pS + pAo)\\     /    1    \\\\                           // // pS = poolSupply                 || ---------  | ^ | --------- || * bI - bI                // // pAo = poolAmountOut              \\\\    pS    /     \\(wI / tW)//                           // // bI = balanceIn          tAi =  --------------------------------------------               // // wI = weightIn                              /      wI  \\                                   // // tW = totalWeight                          |  1 - ----  |  * sF                            // // sF = swapFee                               \\      tW  /                                   //*********************************************************************************************"
      },
      "calcSingleOutGivenPoolIn(uint256,uint256,uint256,uint256,uint256,uint256)": {
        "notice": "******************************************************************************************** // calcSingleOutGivenPoolIn                                                                  // // tAo = tokenAmountOut            /      /                                             \\\\   // // bO = tokenBalanceOut           /      // pS - (pAi * (1 - eF)) \\     /    1    \\      \\\\  // // pAi = poolAmountIn            | bO - || ----------------------- | ^ | --------- | * b0 || // // ps = poolSupply                \\      \\\\          pS           /     \\(wO / tW)/      //  // // wI = tokenWeightIn      tAo =   \\      \\                                             //   // // tW = totalWeight                    /     /      wO \\       \\                             // // sF = swapFee                    *  | 1 - |  1 - ---- | * sF  |                            // // eF = exitFee                        \\     \\      tW /       /                             //*********************************************************************************************"
      },
      "calcSpotPrice(uint256,uint256,uint256,uint256,uint256)": {
        "notice": "******************************************************************************************** // calcSpotPrice                                                                             // // sP = spotPrice                                                                            // // bI = tokenBalanceIn                ( bI / wI )         1                                  // // bO = tokenBalanceOut         sP =  -----------  *  ----------                             // // wI = tokenWeightIn                 ( bO / wO )     ( 1 - sF )                             // // wO = tokenWeightOut                                                                       // // sF = swapFee                                                                              //*********************************************************************************************"
      }
    }
  }
}