{
  "contractName": "OPFCommunityFeeCollector",
  "abi": [
    {
      "constant": false,
      "inputs": [],
      "name": "renounceOwnership",
      "outputs": [],
      "payable": false,
      "stateMutability": "nonpayable",
      "type": "function"
    },
    {
      "constant": true,
      "inputs": [],
      "name": "owner",
      "outputs": [
        {
          "name": "",
          "type": "address"
        }
      ],
      "payable": false,
      "stateMutability": "view",
      "type": "function"
    },
    {
      "constant": true,
      "inputs": [],
      "name": "isOwner",
      "outputs": [
        {
          "name": "",
          "type": "bool"
        }
      ],
      "payable": false,
      "stateMutability": "view",
      "type": "function"
    },
    {
      "constant": false,
      "inputs": [
        {
          "name": "newOwner",
          "type": "address"
        }
      ],
      "name": "transferOwnership",
      "outputs": [],
      "payable": false,
      "stateMutability": "nonpayable",
      "type": "function"
    },
    {
      "inputs": [
        {
          "name": "newCollector",
          "type": "address"
        },
        {
          "name": "OPFOwnerAddress",
          "type": "address"
        }
      ],
      "payable": false,
      "stateMutability": "nonpayable",
      "type": "constructor"
    },
    {
      "payable": true,
      "stateMutability": "payable",
      "type": "fallback"
    },
    {
      "anonymous": false,
      "inputs": [
        {
          "indexed": true,
          "name": "previousOwner",
          "type": "address"
        },
        {
          "indexed": true,
          "name": "newOwner",
          "type": "address"
        }
      ],
      "name": "OwnershipTransferred",
      "type": "event"
    },
    {
      "constant": false,
      "inputs": [],
      "name": "withdrawETH",
      "outputs": [],
      "payable": true,
      "stateMutability": "payable",
      "type": "function"
    },
    {
      "constant": false,
      "inputs": [
        {
          "name": "tokenAddress",
          "type": "address"
        }
      ],
      "name": "withdrawToken",
      "outputs": [],
      "payable": false,
      "stateMutability": "nonpayable",
      "type": "function"
    },
    {
      "constant": false,
      "inputs": [
        {
          "name": "newCollector",
          "type": "address"
        }
      ],
      "name": "changeCollector",
      "outputs": [],
      "payable": false,
      "stateMutability": "nonpayable",
      "type": "function"
    }
  ],
  "bytecode": "0x608060405234801561001057600080fd5b50604051604080610a838339810180604052604081101561003057600080fd5b508051602090910151600061004c64010000000061012d810204565b60008054600160a060020a031916600160a060020a038316908117825560405192935091600080516020610a63833981519152908290a350600160a060020a038216158015906100a45750600160a060020a03811615155b6100f9576040517f08c379a0000000000000000000000000000000000000000000000000000000008152600401808060200182810382526047815260200180610a1c6047913960600191505060405180910390fd5b60018054600160a060020a031916600160a060020a03841617905561012681640100000000610131810204565b5050610297565b3390565b6101426401000000006101c2810204565b6101ad57604080517f08c379a000000000000000000000000000000000000000000000000000000000815260206004820181905260248201527f4f776e61626c653a2063616c6c6572206973206e6f7420746865206f776e6572604482015290519081900360640190fd5b6101bf816401000000006101ef810204565b50565b60008054600160a060020a03166101e064010000000061012d810204565b600160a060020a031614905090565b600160a060020a03811661024e576040517f08c379a00000000000000000000000000000000000000000000000000000000081526004018080602001828103825260268152602001806109f66026913960400191505060405180910390fd5b60008054604051600160a060020a0380851693921691600080516020610a6383398151915291a360008054600160a060020a031916600160a060020a0392909216919091179055565b610750806102a66000396000f3fe60806040526004361061008d576000357c0100000000000000000000000000000000000000000000000000000000900480638da5cb5b1161006b5780638da5cb5b1461010a5780638f32d59b1461013b578063e086e5ec14610164578063f2fde38b1461016c5761008d565b8063715018a61461008f5780637781127e146100a457806389476069146100d7575b005b34801561009b57600080fd5b5061008d61019f565b3480156100b057600080fd5b5061008d600480360360208110156100c757600080fd5b5035600160a060020a0316610252565b3480156100e357600080fd5b5061008d600480360360208110156100fa57600080fd5b5035600160a060020a0316610325565b34801561011657600080fd5b5061011f6104da565b60408051600160a060020a039092168252519081900360200190f35b34801561014757600080fd5b506101506104e9565b604080519115158252519081900360200190f35b61008d61050d565b34801561017857600080fd5b5061008d6004803603602081101561018f57600080fd5b5035600160a060020a0316610547565b6101a76104e9565b6101fb576040805160e560020a62461bcd02815260206004820181905260248201527f4f776e61626c653a2063616c6c6572206973206e6f7420746865206f776e6572604482015290519081900360640190fd5b60008054604051600160a060020a03909116907f8be0079c531659141344cd1fd0a4f28419497f9722a3daafe3b4186f6b6457e0908390a36000805473ffffffffffffffffffffffffffffffffffffffff19169055565b61025a6104e9565b6102ae576040805160e560020a62461bcd02815260206004820181905260248201527f4f776e61626c653a2063616c6c6572206973206e6f7420746865206f776e6572604482015290519081900360640190fd5b600160a060020a0381166102f65760405160e560020a62461bcd0281526004018080602001828103825260338152602001806106f26033913960400191505060405180910390fd5b6001805473ffffffffffffffffffffffffffffffffffffffff1916600160a060020a0392909216919091179055565b600160a060020a03811661036d5760405160e560020a62461bcd0281526004018080602001828103825260388152602001806106876038913960400191505060405180910390fd5b600154604080517f70a082310000000000000000000000000000000000000000000000000000000081523060048201529051600160a060020a038085169363a9059cbb9391169184916370a08231916024808301926020929190829003018186803b1580156103db57600080fd5b505afa1580156103ef573d6000803e3d6000fd5b505050506040513d602081101561040557600080fd5b5051604080517c010000000000000000000000000000000000000000000000000000000063ffffffff8616028152600160a060020a03909316600484015260248301919091525160448083019260209291908290030181600087803b15801561046d57600080fd5b505af1158015610481573d6000803e3d6000fd5b505050506040513d602081101561049757600080fd5b50516104d75760405160e560020a62461bcd0281526004018080602001828103825260338152602001806106bf6033913960400191505060405180910390fd5b50565b600054600160a060020a031690565b60008054600160a060020a03166104fe6105ac565b600160a060020a031614905090565b600154604051600160a060020a0390911690303180156108fc02916000818181858888f193505050501580156104d7573d6000803e3d6000fd5b61054f6104e9565b6105a3576040805160e560020a62461bcd02815260206004820181905260248201527f4f776e61626c653a2063616c6c6572206973206e6f7420746865206f776e6572604482015290519081900360640190fd5b6104d7816105b0565b3390565b600160a060020a0381166105f85760405160e560020a62461bcd0281526004018080602001828103825260268152602001806106616026913960400191505060405180910390fd5b60008054604051600160a060020a03808516939216917f8be0079c531659141344cd1fd0a4f28419497f9722a3daafe3b4186f6b6457e091a36000805473ffffffffffffffffffffffffffffffffffffffff1916600160a060020a039290921691909117905556fe4f776e61626c653a206e6577206f776e657220697320746865207a65726f20616464726573734f5046436f6d6d756e697479466565436f6c6c6563746f723a20696e76616c696420746f6b656e20636f6e747261637420616464726573734f5046436f6d6d756e697479466565436f6c6c6563746f723a206661696c656420746f20776974686472617720746f6b656e734f5046436f6d6d756e697479466565436f6c6c6563746f723a20696e76616c696420636f6c6c6563746f722061646472657373a165627a7a72305820c9e992a3701f83fbf4570890a03584f10e22d2756da514cb14d0184aa38be49400294f776e61626c653a206e6577206f776e657220697320746865207a65726f20616464726573734f5046436f6d6d756e697479466565436f6c6c6563746f723a20636f6c6c6563746f722061646472657373206f72206f776e657220697320696e76616c696420616464726573738be0079c531659141344cd1fd0a4f28419497f9722a3daafe3b4186f6b6457e0",
  "source": "pragma solidity ^0.5.7;\n// Copyright BigchainDB GmbH and Ocean Protocol contributors\n// SPDX-License-Identifier: (Apache-2.0 AND CC-BY-4.0)\n// Code is Apache-2.0 and docs are CC-BY-4.0\nimport '../interfaces/IERC20Template.sol';\nimport 'openzeppelin-solidity/contracts/ownership/Ownable.sol';\n\n\n/**\n * @title OPFCommunityFeeCollector\n * @dev Ocean Protocol Foundation Community Fee Collector contract\n *      allows consumers to pay very small fee as part of the exchange of \n *      data tokens with ocean token in order to support the community of  \n *      ocean protocol and provide a sustainble development.\n */\ncontract OPFCommunityFeeCollector is Ownable {\n    address payable private collector;\n    /**\n     * @dev constructor\n     *      Called prior contract deployment. set the controller address and\n     *      the contract owner address\n     * @param newCollector the fee collector address.\n     * @param OPFOwnerAddress the contract owner address\n     */\n    constructor(\n        address payable newCollector,\n        address OPFOwnerAddress\n    ) \n        public\n        Ownable()\n    {\n        require(\n            newCollector != address(0)&&\n            OPFOwnerAddress != address(0), \n            'OPFCommunityFeeCollector: collector address or owner is invalid address'\n        );\n        collector = newCollector;\n        transferOwnership(OPFOwnerAddress);\n    }\n    /**\n     * @dev fallback function\n     *      this is a default fallback function in which receives\n     *      the collected ether.\n     */\n    function() external payable {}\n\n    /**\n     * @dev withdrawETH\n     *      transfers all the accumlated ether the collector address\n     */\n    function withdrawETH() \n        external \n        payable\n    {\n        collector.transfer(address(this).balance);\n    }\n\n    /**\n     * @dev withdrawToken\n     *      transfers all the accumlated tokens the collector address\n     * @param tokenAddress the token contract address \n     */\n    function withdrawToken(\n        address tokenAddress\n    ) \n        external\n    {\n        require(\n            tokenAddress != address(0),\n            'OPFCommunityFeeCollector: invalid token contract address'\n        );\n\n        require (\n            IERC20Template(tokenAddress).transfer(\n                collector,\n                IERC20Template(tokenAddress).balanceOf(address(this))\n            ),\n            'OPFCommunityFeeCollector: failed to withdraw tokens'\n        );\n    }\n\n    /**\n     * @dev changeCollector\n     *      change the current collector address. Only owner can do that.\n     * @param newCollector the new collector address \n     */\n    function changeCollector(\n        address payable newCollector\n    ) \n        external \n        onlyOwner \n    {\n        require(\n            newCollector != address(0),\n            'OPFCommunityFeeCollector: invalid collector address'\n        );\n        collector = newCollector;\n    }\n}\n",
  "sourcePath": "/home/trentmc/code/contracts/contracts/communityFee/OPFCommunityFeeCollector.sol",
  "compiler": {
    "name": "solc",
    "version": "0.5.7+commit.6da8b019.Emscripten.clang"
  },
  "schemaVersion": "3.2.4",
  "updatedAt": "2020-11-27T13:03:35.526Z",
  "devdoc": {
    "details": "Ocean Protocol Foundation Community Fee Collector contract     allows consumers to pay very small fee as part of the exchange of      data tokens with ocean token in order to support the community of       ocean protocol and provide a sustainble development.",
    "methods": {
      "changeCollector(address)": {
        "details": "changeCollector     change the current collector address. Only owner can do that.",
        "params": {
          "newCollector": "the new collector address "
        }
      },
      "constructor": {
        "details": "constructor     Called prior contract deployment. set the controller address and     the contract owner address",
        "params": {
          "OPFOwnerAddress": "the contract owner address",
          "newCollector": "the fee collector address."
        }
      },
      "isOwner()": {
        "details": "Returns true if the caller is the current owner."
      },
      "owner()": {
        "details": "Returns the address of the current owner."
      },
      "renounceOwnership()": {
        "details": "Leaves the contract without owner. It will not be possible to call `onlyOwner` functions anymore. Can only be called by the current owner.     * NOTE: Renouncing ownership will leave the contract without an owner, thereby removing any functionality that is only available to the owner."
      },
      "transferOwnership(address)": {
        "details": "Transfers ownership of the contract to a new account (`newOwner`). Can only be called by the current owner."
      },
      "withdrawETH()": {
        "details": "withdrawETH     transfers all the accumlated ether the collector address"
      },
      "withdrawToken(address)": {
        "details": "withdrawToken     transfers all the accumlated tokens the collector address",
        "params": {
          "tokenAddress": "the token contract address "
        }
      }
    },
    "title": "OPFCommunityFeeCollector"
  },
  "userdoc": {
    "methods": {}
  }
}